:020000040800F2
:100000000000012055180008011700080317000818
:10001000051700080717000809170008000000006E
:100020000000000000000000000000000B170008A6
:100030000D170008000000000F1700081117000836
:1000400099180008991800089918000899180008CC
:1000500099180008991800089918000899180008BC
:1000600099180008991800089918000899180008AC
:10007000991800089918000899180008991800089C
:10008000991800089918000899180008991800088C
:10009000991800089918000899180008991800087C
:1000A000991800089918000899180008991800086C
:1000B000991800089918000899180008991800085C
:1000C000991800089918000899180008991800084C
:1000D000991800089918000899180008991800083C
:1000E00099180008991800089918000800000000E5
:1000F0000000000000000000000000000000000000
:040100009918000842
:1001080010B5054C237833B9044B13B10448AFF349
:1001180000800123237010BDB009002000000000FA
:100128000401000808B5034B1BB103490348AFF3AA
:10013800008008BD00000000B40900200401000888
:10014800844641EA000313F0030349D1403A23D31C
:100158000B6803604B6843608B688360CB68C3603F
:100168000B6903614B6943618B698361CB69C36127
:100178000B6A03624B6A43628B6A8362CB6AC3620F
:100188000B6B03634B6B43638B6B8363CB6BC363F7
:1001980040304031403ADBD230320BD30B68036039
:1001A8004B6843608B688360CB68C3601030103144
:1001B800103AF3D20C3205D351F8043B40F8043B13
:1001C800043AF9D2043208D0D2071CBF11F8013B17
:1001D80000F8013B01D30B8803806046704700BFDD
:1001E800082A13D38B07B1D010F00303AED0C3F1A4
:1001F8000403D21ADB071CBF11F8013B00F8013BCE
:10020800A4D331F8023B20F8023B9FE7043AD9D344
:10021800013A11F8013B00F8013BF9D20B78037061
:100228004B7843708B7883706046704781F000414B
:1002380002E000BF83F0004330B54FEA41044FEAC3
:10024800430594EA050F08BF90EA020F1FBF54EA5E
:10025800000C55EA020C7FEA645C7FEA655C00F0FA
:10026800E2804FEA5454D4EB5555B8BF6D420CDDCB
:100278002C4480EA020281EA030382EA000083EA4E
:10028800010180EA020281EA0303362D88BF30BDEE
:1002980011F0004F4FEA01314FF4801C4CEA113144
:1002A80002D0404261EB410113F0004F4FEA0333A3
:1002B8004CEA133302D0524263EB430394EA050F2E
:1002C80000F0A780A4F10104D5F1200E0DDB02FA9D
:1002D8000EFC22FA05F2801841F1000103FA0EF231
:1002E800801843FA05F359410EE0A5F120050EF1F7
:1002F800200E012A03FA0EFC28BF4CF0020C43FA28
:1003080005F3C01851EBE37101F0004507D54FF034
:10031800000EDCF1000C7EEB00006EEB0101B1F584
:10032800801F1BD3B1F5001F0CD349085FEA3000CA
:100338004FEA3C0C04F101044FEA445212F5800FD5
:1003480080F09A80BCF1004F08BF5FEA500C50F172
:10035800000041EB045141EA050130BD5FEA4C0C55
:10036800404141EB0101013C28BFB1F5801FE9D2B2
:1003780091F0000F04BF01460020B1FA81F308BFD5
:100388002033A3F10B03B3F120020CDA0C3208DDA1
:1003980002F1140CC2F10C0201FA0CF021FA02F17C
:1003A8000CE002F11402D8BFC2F1200C01FA02F1EC
:1003B80020FA0CFCDCBF41EA0C019040E41AA2BF11
:1003C80001EB0451294330BD6FEA04041F3C1CDAD9
:1003D8000C340EDC04F11404C4F1200220FA04F0F9
:1003E80001FA02F340EA030021FA04F345EA0301A3
:1003F80030BDC4F10C04C4F1200220FA02F001FA65
:1004080004F340EA0300294630BD21FA04F02946E6
:1004180030BD94F0000F83F4801306BF81F480117F
:100428000134013D4EE77FEA645C18BF7FEA655CF2
:1004380029D094EA050F08BF90EA020F05D054EAC4
:10044800000C04BF1946104630BD91EA030F1EBFC9
:100458000021002030BD5FEA545C05D140004941CD
:1004680028BF41F0004130BD14F580043CBF01F5C0
:10047800801130BD01F0004545F0FE4141F47001A6
:100488004FF0000030BD7FEA645C1ABF1946104681
:100498007FEA655C1CBF0B46024650EA013406BF82
:1004A80052EA033591EA030F41F4002130BD00BF41
:1004B80090F0000F04BF0021704730B54FF48064FE
:1004C80004F132044FF000054FF0000150E700BF7F
:1004D80090F0000F04BF0021704730B54FF48064DE
:1004E80004F1320410F0004548BF40424FF00001CB
:1004F8003EE700BF42004FEAE2014FEA31014FEA0E
:1005080002701FBF12F07F4393F07F4F81F060515C
:10051800704732F07F4208BF704793F07F4F04BFA7
:1005280041F40021704730B54FF4607401F0004584
:1005380021F000411CE700BF50EA010208BF7047E4
:1005480030B54FF000050AE050EA010208BF7047D5
:1005580030B511F0004502D5404261EB41014FF43E
:10056800806404F132045FEA915C3FF4D8AE4FF046
:1005780003025FEADC0C18BF03325FEADC0C18BF29
:10058800033202EBDC02C2F1200300FA03FC20FA7A
:1005980002F001FA03FE40EA0E0021FA02F11444C7
:1005A800BDE600BF70B54FF0FF0C4CF4E06C1CEAE0
:1005B80011541DBF1CEA135594EA0C0F95EA0C0F51
:1005C80000F0DEF82C4481EA030621EA4C5123EAC4
:1005D8004C5350EA013518BF52EA033541F48011F3
:1005E80043F4801338D0A0FB02CE4FF00005E1FBA6
:1005F80002E506F00042E0FB03E54FF00006E1FBF0
:1006080003569CF0000F18BF4EF0010EA4F1FF0432
:10061800B6F5007F64F5407404D25FEA4E0E6D4172
:1006280046EB060642EAC62141EA55514FEAC52083
:1006380040EA5E504FEACE2EB4F1FD0C88BFBCF5FF
:10064800E06F1ED8BEF1004F08BF5FEA500E50F1B0
:10065800000041EB045170BD06F0004646EA010176
:1006680040EA020081EA0301B4EB5C04C2BFD4EBA8
:100678000C0541EA045170BD41F480114FF0000EA1
:10068800013C00F3AB8014F1360FDEBF002001F00F
:10069800004170BDC4F10004203C35DA0C341BDC89
:1006A80004F11404C4F1200500FA05F320FA04F05B
:1006B80001FA05F240EA020001F0004221F000418F
:1006C80010EBD37021FA04F642EB06015EEA430E02
:1006D80008BF20EAD37070BDC4F10C04C4F1200532
:1006E80000FA04F320FA05F001FA04F240EA0200E5
:1006F80001F0004110EBD37041F100015EEA430EB6
:1007080008BF20EAD37070BDC4F1200500FA05F2D5
:100718004EEA020E20FA04F301FA05F243EA020354
:1007280021FA04F001F0004121FA04F220EA020063
:1007380000EBD3705EEA430E08BF20EAD37070BDA9
:1007480094F0000F0FD101F00046400041EB010189
:1007580011F4801F08BF013CF7D041EA060195F06B
:10076800000F18BF704703F00046520043EB030325
:1007780013F4801F08BF013DF7D043EA0603704712
:1007880094EA0C0F0CEA135518BF95EA0C0F0CD01D
:1007980050EA410618BF52EA4306D1D181EA030163
:1007A80001F000414FF0000070BD50EA410606BF5D
:1007B8001046194652EA430619D094EA0C0F02D1A2
:1007C80050EA013613D195EA0C0F05D152EA0336E7
:1007D8001CBF104619460AD181EA030101F0004105
:1007E80041F0FE4141F470014FF0000070BD41F04E
:1007F800FE4141F4780170BD70B54FF0FF0C4CF428
:10080800E06C1CEA11541DBF1CEA135594EA0C0F46
:1008180095EA0C0F00F0A7F8A4EB050481EA030E93
:1008280052EA03354FEA013100F088804FEA03337A
:100838004FF0805545EA131343EA12634FEA022248
:1008480045EA111545EA10654FEA00260EF0004109
:100858009D4208BF964244F1FD0404F5407402D25B
:100868005B084FEA3202B61A65EB03055B084FEAEC
:1008780032024FF480104FF4002CB6EB020E75EBE9
:10088800030E22BFB61A754640EA0C005B084FEA11
:100898003202B6EB020E75EB030E22BFB61A75468E
:1008A80040EA5C005B084FEA3202B6EB020E75EBD9
:1008B800030E22BFB61A754640EA9C005B084FEA51
:1008C8003202B6EB020E75EB030E22BFB61A75465E
:1008D80040EADC0055EA060E18D04FEA051545EA4D
:1008E80016754FEA06164FEAC30343EA52734FEAF6
:1008F800C2025FEA1C1CC0D111F4801F0BD141EA6F
:1009080000014FF000004FF0004CB6E711F4801FD3
:1009180004BF01430020B4F1FD0C88BFBCF5E06FB3
:100928003FF6AFAEB5EB030C04BFB6EB020C5FEAC3
:10093800500C50F1000041EB045170BD0EF0004E18
:100948004EEA113114EB5C04C2BFD4EB0C0541EA4A
:10095800045170BD41F480114FF0000E013C90E647
:1009680045EA060E8DE60CEA135594EA0C0F08BF0B
:1009780095EA0C0F3FF43BAF94EA0C0F0AD150EA0A
:1009880001347FF434AF95EA0C0F7FF425AF10469D
:1009980019462CE795EA0C0F06D152EA03353FF4C5
:1009A800FDAE1046194622E750EA410618BF52EA42
:1009B80043067FF4C5AE50EA41047FF40DAF52EA16
:1009C80043057FF4EBAE12E74FF0FF3C06E000BFB3
:1009D8004FF0010C02E000BF4FF0010C4DF804CDC0
:1009E8004FEA410C7FEA6C5C4FEA430C18BF7FEA80
:1009F8006C5C1BD001B050EA410C0CBF52EA430CAE
:100A080091EA030F02BF90EA020F0020704710F12D
:100A1800000F91EA030F58BF994208BF90422CBFBC
:100A2800D8176FEAE37040F0010070474FEA410CB5
:100A38007FEA6C5C02D150EA013C07D14FEA430CD3
:100A48007FEA6C5CD6D152EA033CD3D05DF8040B44
:100A5800704700BF8446104662468C461946634676
:100A680000E000BF01B5FFF7B7FF002848BF10F14D
:100A7800000F01BD4DF808EDFFF7F4FF0CBF012092
:100A880000205DF808FB00BF4DF808EDFFF7EAFF0E
:100A980034BF012000205DF808FB00BF4DF808EDC9
:100AA800FFF7E0FF94BF012000205DF808FB00BFBE
:100AB8004DF808EDFFF7CEFF94BF012000205DF848
:100AC80008FB00BF4DF808EDFFF7C4FF34BF012055
:100AD80000205DF808FB00BF4FEA410C7FEA6C5C20
:100AE80002D150EA013C0AD14FEA430C7FEA6C5C20
:100AF80002D152EA033C02D14FF0000070474FF098
:100B0800010070474FEA410212F5001215D211D5C3
:100B18006FF47873B3EB625212D94FEAC12343F0F2
:100B2800004343EA505311F0004F23FA02F018BF74
:100B3800404270474FF00000704750EA013005D13D
:100B480011F0004008BF6FF0004070474FF0000000
:100B5800704700BF53B94AB9002908BF00281CBF15
:100B68004FF0FF314FF0FF3000F076B9ADF1080CCF
:100B78006DE904CE00F006F8DDF804E0DDE90223B3
:100B880004B070472DE9F047089E0D460446884694
:100B9800002B4DD18A42944668D9B2FA82F252B1FA
:100BA80001FA02F3C2F1200120FA01F10CFA02FC69
:100BB80041EA030894404FEA1C41B8FBF1F71FFAD9
:100BC8008CFE01FB178807FB0EF0230C43EA084351
:100BD80098420AD91CEB030307F1FF3580F01E8108
:100BE800984240F21B81023F63441B1AB3FBF1F0A9
:100BF80001FB103300FB0EFEA4B244EA0344A645F1
:100C08000AD91CEB040400F1FF3380F00981A645E2
:100C180040F20681644402380021A4EB0E0440EA45
:100C280007401EB10023D440C6E90043BDE8F08761
:100C38008B4208D9002E00F0EE800021C6E900059D
:100C48000846BDE8F087B3FA83F100294AD1AB42E0
:100C580002D3824200F2FC80841A65EB0303012070
:100C68009846002EE2D0C6E90048DFE702B9FFDE69
:100C7800B2FA82F2002A40F09180A1EB0C00012127
:100C88004FEA1C471FFA8CFEB0FBF7F307FB130073
:100C9800250C45EA00450EFB03F0A84208D91CEBD9
:100CA800050503F1FF3802D2A84200F2CE80434680
:100CB8002D1AB5FBF7F007FB10550EFB00FEA4B28A
:100CC80044EA0544A64508D91CEB040400F1FF35A5
:100CD80002D2A64500F2B6802846A4EB0E0440EAEC
:100CE80003409EE7C1F120078B4022FA07FC4CEA3B
:100CF800030C25FA07FA4FEA1C49BAFBF9F820FA5F
:100D080007F309FB18AA8D401FFA8CFE1D4300FA51
:100D180001F308FB0EF02C0C44EA0A44A04202FA44
:100D280001F20BD91CEB040408F1FF3A80F088802B
:100D3800A04240F28580A8F102086444241AB4FB5A
:100D4800F9F009FB104400FB0EFEADB245EA04447D
:100D5800A64508D91CEB040400F1FF356CD2A64562
:100D68006AD90238644440EA0840A0FB0295A4EB23
:100D78000E04AC42C846AE4656D353D0002E69D0B6
:100D8800B3EB080264EB0E0422FA01F304FA07F746
:100D98001F43CC40C6E90074002147E70CFA02FC67
:100DA800C2F1200125FA01F34FEA1C4720FA01F1AC
:100DB80095400D43B3FBF7F107FB11331FFA8CFE87
:100DC800280C40EA034001FB0EF3834204FA02F4C4
:100DD80008D91CEB000001F1FF382FD283422DD92E
:100DE80002396044C01AB0FBF7F307FB1300ADB239
:100DF80045EA004503FB0EF0A84208D91CEB05059F
:100E080003F1FF3816D2A84214D9023B6544281AC8
:100E180043EA014138E73146304607E72F46E4E622
:100E28001846F9E64B45A9D2B9EB020865EB0C0E5A
:100E38000138A3E74346EAE7284694E74146D1E765
:100E4800D0467BE76444023847E7023B65442FE716
:100E5800084606E73146E9E6704700BF10B42C4B58
:100E6800D3F800446FEA000C24EA0004C3F80044F5
:100E7800D3F8044424EA0004C3F80444D3F808442B
:100E880024EA0004C3F80844D3F80C4424EA000414
:100E9800C3F80C4441B101290DD0012A1FD0022A00
:100EA8002AD07AB110BC70471949D1F800340343ED
:100EB800C1F80034F1E71649D1F804340343C1F806
:100EC8000434EAE7124BD3F808241043C3F80804A3
:100ED800D3F80C240CEA0202C3F80C24E2E70C4A0B
:100EE800D2F808340CEA0303C2F80834D2F80C34F8
:100EF8001843C2F80C04D5E7054BD3F8082402437D
:100F0800C3F80824D3F80C241043C3F80C04C9E729
:100F180000000140014BC3F8140470470000014071
:100F280070B501F00F0E11F0100F01D04EEA020E4D
:100F3800002203E044610560013292B2072A14D806
:100F4800012494401C40F7D0066895004FF00F0C20
:100F58000CFA05FC26EA0C060EFA05F53543282995
:100F6800E8D04829E7D10461E5E7082203E04461B5
:100F78004560013292B20F2A1AD84FF0010C0CFAD0
:100F880002FC1CEA0304F4D04568A2F1080C4FEAFD
:100F98008C0C0F2606FA0CF625EA06050EFA0CFC50
:100FA8004CEA05052829E2D04829E1D10461DFE7A8
:100FB80070BD0AB1016170474161704783680B4297
:100FC80001D00120704700207047000010B401F0E4
:100FD80003039B000F229A4003290BD818498C68F9
:100FE80024EA02028A608A6800FA03F313438B60DA
:100FF80010BC704707290AD81149CC6824EA0202B4
:10100800CA60CA6800FA03F31343CB60F0E70B2900
:101018000AD80B490C6924EA02020A610A6900FA33
:1010280003F313430B61E3E705494C6924EA020221
:101038004A614A6900FA03F313434B61D8E700BFDA
:101048000000014040F0BF6040F40030014BD86020
:10105800704700BF00ED00E070B505460E46144627
:10106800204BDB6803F4E063B3F5A06F31D008D9F7
:10107800B3F5C06F33D0B3F5E06F23D1042300225A
:1010880007E0B3F5407F27D0B3F5806F1AD101236D
:101098000322C2F1040206FA02F2C3F104030F218B
:1010A80021FA03F31C4014432401E4B20E4A5319F5
:1010B80083F8004305F01F016D0901238B4042F8B6
:1010C800253070BD4FF4A060FFF7BCFF02231A461D
:1010D800DFE702231A46DCE700230422D9E70323CB
:1010E8000122D6E700ED00E000E100E021F06041D8
:1010F80021F07F010143024B9960BFF34F8F704786
:1011080000ED00E0830903F1804303F504331A6816
:1011180000F01F00012101FA00F010431860704729
:10112800830903F1804303F504331A6800F01F00B4
:10113800012101FA00F0104318607047830903F198
:10114800804303F504331A6800F01F00012101FAF7
:1011580000F022EA000018607047000010B588B05F
:101168008446324C94E80F000DF1200E0EE90F0072
:1011780002AB103494E8030083E803006B4683E86D
:1011880003002B4B5B68C3F38103022B23D0294850
:1011980027494B68C3F3031320336B4413F8102C0F
:1011A80020FA02F24B68C3F3022320336B4413F88E
:1011B800183C22FA03F44B68C3F3C22320336B4470
:1011C80013F8203C22FA03F3BCF1030F24D8DFE81C
:1011D8000CF02625282A164B5B6813F4803F06D0AE
:1011E800134B5B6813F4003F12D1124A00E0124A15
:1011F8000F4B5868C0F383405B6813F0006F01D051
:1012080040F010000E2805D8023002FB00F0BFE7BE
:10121800094AEDE70130F8E7002000E0104608B081
:1012280010BD2046FBE71846F9E700BF40790008E3
:101238000010024000127A0000093D0008B5204B5A
:1012480098422AD00FD91F4B98422FD003F56843F4
:10125800984207D140F20E30FFF762FF40F20E309D
:10126800FFF76CFF08BDA3F5006398420CD003F5A7
:1012780080639842F6D140F21240FFF751FF40F2E6
:101288001240FFF75BFFEDE740F21140FFF748FF20
:1012980040F21140FFF752FFE4E740F21340FFF736
:1012A8003FFF40F21340FFF749FFDBE740F21440ED
:1012B800FFF736FF40F21440FFF740FFD2E700BFC8
:1012C800004C00400050004038B504460D46184B0D
:1012D800984223D010D9174B984223D003F568437E
:1012E800984223D10320FFF739FF00EB5500B0FBEC
:1012F800F5F189B2A16038BDA3F50063984209D021
:1013080003F58063984203D10220FFF727FFECE73B
:101318000020EAE70220FFF721FFE6E70220FFF7B7
:101328001DFFE2E70220FFF719FFDEE70020DCE7F8
:10133800004C004000500040C26822F4C062C26005
:10134800C3680B43C3607047C26822F48052C2600E
:10135800C3680B43C3607047026922F440520261BC
:1013680003690B4303617047C36843F40053C360C8
:101378007047C36823F008030B43C3607047C36812
:1013880023F004030B43C3607047436923F480735D
:101398000B4343617047436923F400730B43436174
:1013A80070470000254A136843F480331360002314
:1013B8000133224A126812F4003F03D14FF6FF723C
:1013C8009342F5D11D4B1B6813F4003F00D1FEE793
:1013D8001A4B5A685A605A685A605A6842F48062CE
:1013E8005A605A6822F440325A605A6842F44032CD
:1013F8005A605A6822F0036222F440225A605A68FE
:1014080042F0026242F400225A601A6842F0807286
:101418001A600A4B1B6813F0007FFAD0074B5A6812
:1014280022F003025A605A6842F002025A60034BE3
:101438005B6813F0080FFAD0704700BF0010024035
:1014480008B5FFF7AFFF08BD00B583B02B4A136896
:1014580043F001031360294B1B6813F0020FFAD005
:10146800264A536843F0800353600023019302E047
:10147800019B01330193019B4F2BF9D91F4A5368F4
:1014880043F0900353600023019302E0019B013372
:101498000193019B4F2BF9D9184B5A6822F003028C
:1014A8005A601A6822F0847222F480321A605968ED
:1014B800134A0A405A601A6822F0847222F4803271
:1014C8001A601A6822F480221A605A6822F00F62A1
:1014D80022F470225A601A6822F0847222F4803250
:1014E8001A604FF41F029A60FFF7AAFF00214FF01D
:1014F8000060FFF7FBFD03B05DF804FB001002403D
:101508000C00FFE838B50446094B33F81000FFF724
:10151800F9FD084B53F82450074B53F824402B4649
:10152800032210212046FFF7FBFC656138BD00BF90
:10153800787900088079000890790008034B53F8FF
:101548002030034A52F820201A6170479079000829
:1015580080790008034B53F82030034A52F82020C2
:101568005A617047907900088079000838B5094BAE
:1015780053F82040084B53F8205029462046FFF7DF
:101588001DFDC0F10102D2B229462046FFF711FD28
:1015980038BD00BF907900088079000838B5044646
:1015A8000D46174B33F81000FFF7ACFD4FF4C06041
:1015B800FFF7A8FD134B53F82430032204211248E7
:1015C80050F82400FFF7ACFC012D00D038BD0022F4
:1015D80002210E4B185DFFF73FFD0D4B195D0D4BBA
:1015E800185DFFF7F3FC0C4B53F82440012200214F
:1015F8002046FFF733FC2046FFF78CFCE6E700BFE8
:10160800A0790008B8790008C8790008B4790008FA
:10161800C4790008D4790008A879000808B5044BF3
:1016280053F82010034B53F82000FFF7C7FC08BD00
:10163800B8790008C879000870B50446284B984264
:1016480049D0A3F57443984247D00025254B33F879
:101658001500FFF757FD244B33F81500FFF752FD2F
:10166800224B53F82560224B53F8253003221821CA
:101678003046FFF755FC1F4B53F825300322042151
:101688003046FFF74DFC2046FFF7D8FD4FF4E13117
:101698002046FFF719FE00212046FFF755FE0021DE
:1016A8002046FFF759FE00212046FFF745FE00219E
:1016B8002046FFF76AFE00212046FFF76CFE042152
:1016C8002046FFF75CFE08212046FFF752FE204621
:1016D800FFF74AFE70BD0025B8E70125B6E700BF51
:1016E800003801405C7900085879000860790008E2
:1016F80070790008687900087047FEE7FEE7FEE7A2
:10170800FEE770477047704708B500F003F800F02F
:1017180093F808BD08B50C4B1B6883B10A4B1B68CE
:10172800B3F5FA7F07D20020FFF708FF064A1368CF
:10173800013B136008BD0020FFF70CFFF6E7024BE2
:101748004FF47A721A60F5E7CC09002008B500F06A
:1017580049F80020FFF7D6FE0120FFF7D3FE02204C
:10176800FFF7D0FE1A48FFF767FF00210846FFF78A
:1017780015FF0020FFF7F2FC0146164800F0DCF8E0
:101788000120FFF7EBFC0146134800F0D5F80220D2
:10179800FFF7E4FC0146114800F0CEF80320FFF7FC
:1017A800DDFC01460E4800F0C7F80020FFF736FFC1
:1017B8000028FAD10120FFF7C1FE4FF4FA7000F0BB
:1017C80031F80120FFF7C6FE0220FFF7CFFEECE755
:1017D80000380140D8790008E8790008F87900084D
:1017E800087A00080C4B1B680C4AA2FB03239B09D0
:1017F800013BB3F1807F0DD24FF0E0225361084BDB
:10180800F02183F82310002191610720106183F8EB
:1018180023107047FEE700BF00000020D34D621080
:1018280000ED00E0034B1860024B1B68002BFBD156
:10183800704700BFD0090020034B1B681BB1024A48
:101848001368013B13607047D0090020002103E0B2
:101858000A4B5B584350043109480A4B42189A42D4
:10186800F6D3094A02E0002342F8043B074B9A42A8
:10187800F9D3FFF7E9FDFFF769FF7047447E0008D9
:1018880000000020B0090020B0090020200A002034
:10189800FEE70000830730B548D0541E002A3FD029
:1018A8000346CAB201E0013C3AD303F8012B9D0775
:1018B800F9D1032C2DD9CDB245EA05250F2C45EADF
:1018C800054536D9A4F1100222F00F0C03F1200EC1
:1018D800E6444FEA121C03F1100242E9045542E9BA
:1018E800025510327245F8D10CF1010214F00C0FB8
:1018F80003EB021204F00F0C13D0ACF1040323F035
:1019080003030433134442F8045B9342FBD10CF005
:1019180003042CB1CAB21C4403F8012B9C42FBD12E
:1019280030BD64461346002CF4D1F9E7034614464B
:10193800BFE71A46A446E0E70FB400B5074A83B0EC
:1019480004AB106853F8042B8168019300F008F881
:1019580003B05DF804EB04B0704700BF040000203A
:101968002DE9F04FD5B01C469146079105460990E0
:1019780003F03EF902680E941046179204F0E8F856
:1019880016901DB1AB6B002B00F01D82079A536EA9
:10199800DD0740F12D81B2F90C2091B28F0409D4F2
:1019A800079B42F400529A8191B21A465B6E23F467
:1019B800005353660E0740F1C080079B1B69002B3C
:1019C80000F0BB8001F01A030A2B00F0C480002449
:1019D8002BAB224698464D46CDE9294428931294CC
:1019E80000230024CDE914342B78CDE91922CDE960
:1019F8001B2218920B92002B00F08F81AA4604E05C
:101A08001AF8013F002B00F0BB80252BF8D1BAEB68
:101A1800050640F0B9809AF80030002B00F07D816F
:101A280000234FF0FF324FF02B0920241F469AF86D
:101A3800016008920AF1010A8DF883300A930AF1CD
:101A4800010AA6F120035A2B00F2E180DFE813F027
:101A58000503DF00DF000003DF00DF00DF00DE0238
:101A6800DF00DF006A006E02DF0055027802DF0047
:101A780073025B005B005B005B005B005B005B006C
:101A88005B005B00DF00DF00DF00DF00DF00DF005E
:101A9800DF006C01DF00EA01C4016C016C016C011C
:101AA800DF00DF00DF00DF00D002DF00DF002302FD
:101AB800DF00DF00DF00F801DF009202DF00DF0057
:101AC8008707DF00DF00DF00DF00DF00DF00DF0067
:101AD800DF006C01DF00EA01C6016C016C016C01DA
:101AE800B602C601BF01DF00C302DF005A022502A9
:101AF800A402BF01DF00F80172008407DF00DF00E5
:101B08006507DF0072000022A6F130031AF8016BA6
:101B180002EB820203EB4202A6F13003092BF5D94E
:101B28000A928EE70E9B53F8042B002A0A920E9312
:101B3800C0F2E0819AF8006081E7079D099829467C
:101B480001F0FCFC002841F04D83A98901F01A033B
:101B58000A2B7FF43CAF079AB2F90E30002BFFF640
:101B680036AF536ED80702D4890541F14881234620
:101B78004A460799099855B0BDE8F04F01F09CBC5A
:101B8800BAEB050600F0C9802A9BC8E90056334421
:101B98002A93299B0133072B299305DC08F10808B0
:101BA8000B9B33440B9336E70799099828AA04F04E
:101BB8006DF880B90DF1AC08F2E70799099828AAE1
:101BC80004F064F8002800F099800D9B1BB11946B9
:101BD800099802F0E9FE079A536ED90740F1E880A8
:101BE80093895B0601F10A830B9855B0BDE8F08F25
:101BF800079BB3F90C20900591B23FF5CFAE1D4677
:101C0800986D02F0FDFFB5F90C2091B2C6E6002EE2
:101C180000F08380012300228DF8EC6006933BAD31
:101C28008DF883200C930D9208920F9213921092C4
:101C380017F0020302D006990231069117F0840BBF
:101C480007D10A990698A1EB0009B9F1000F00F332
:101C580090832A9C82B10122C8F80420299A013471
:101C680001320DF18301072A2A942992C8F800103D
:101C780000F3D88308F108087BB10223C8F80430C0
:101C8800299B0234013321AA072B2A942993C8F8E7
:101C9800002000F3D58308F10808BBF1800F00F09D
:101CA8008882089B0C9AA3EB020BBBF1000F00F390
:101CB800CB82FB0500F11F820C9BC8F800501C4426
:101CC800C8F80430299B2A940133072B299300F381
:101CD800448308F10808780705D50A9B069A9D1AD7
:101CE800002D00F3B983DDE90A2306998A42ACBFC7
:101CF8009B185B180B93002C7FF45FAF002329938C
:101D08000D9B1BB10D99099802F04EFE55460DF139
:101D1800AC082B78002B7FF471AE2A9B002B41F086
:101D280010820023299356E70E9B073323F00702FE
:101D3800F2E80234CDE91434DDE9143424F0004427
:101D4800994618460E9221464FF0FF32AB4BFEF7EC
:101D5800C3FE002840F01885484621464FF0FF3260
:101D6800A64BFEF79BFE002840F00E85DDE9140126
:101D780000220023FEF788FE002840F065879DF8C2
:101D88008320002103209E4D9E4B27F080070D9154
:101D98000690472EC8BF1D4608910C900F911391CD
:101DA8001091002A3FF444AF069B013306933FE7A6
:101DB800079B9B899A053FF514AF079CA06D02F01D
:101DC80021FFA3890DE7099802F0F6FCDEE59AF8F1
:101DD800006047F0200732E647F01007BA060E9B6E
:101DE80040F16E84073323F007031A465B6852F804
:101DF800084B99460E92002BC0F26F84089B013362
:101E080000F0FB8254EA090327F0800B40F0F682C9
:101E1800089B002B40F0F7825F46002354AD0893DF
:101E28000C933DE1012000220E9B069053F8041B01
:101E38003BAD8DF883208DF8EC100E930C90F2E6F4
:101E48004FF000090E9C089B54F8045B8DF88390B2
:101E5800002D00F0A1855A1C00F0A5861A464946B7
:101E6800284603F0EDF90D90002801F050810D9BF4
:101E78009DF883205B1B0C9323EAE373CDF8209035
:101E88000E940693CDF83490CDF83C90CDF84C9054
:101E9800CDF8409085E747F0100717F0200900F0CB
:101EA800F2830E9B073323F00703D3F8049053F80B
:101EB800084B0E93002327F4806B00228DF88320B3
:101EC800089A511C00F0D48054EA09012BF08007CD
:101ED80040F0CD80002A40F00486002B9DD11BF0F5
:101EE80001030C9300F0308430230DF24F158DF868
:101EF8004F31D5E00A9B5B420A939AF8006047F09D
:101F080004079CE5BD0600F1FD84FC0600F1EE85A2
:101F1800780600F1B286B90540F1E8850E9B0B9969
:101F280053F8042B554611700E93F2E69AF80060A8
:101F38008DF8839083E59AF8006047F080077EE586
:101F4800524612F8016B2A2E01F08D82A6F1300359
:101F5800092B924698BF002201F2E5801AF8016B1E
:101F680002EB820203EB4202A6F13003092BF5D9FA
:101F7800089266E547F0100B1BF0200900F09183EA
:101F88000E9B073323F007031A4652F8084BD3F881
:101F980004900E92012390E7302278260E9B8DF84C
:101FA800842053F8044B184A0E934FF0000902237B
:101FB80047F0020B8DF8856018927EE79AF800606A
:101FC800682E03BF9AF8016047F400770AF1010A06
:101FD80047F0400733E59AF800606C2E03BF9AF883
:101FE800016047F020070AF1010A47F0100726E5CB
:101FF8009AF8006047F0080721E500BFFFFFEF7F70
:102008001C7A0008207A00082C7A0008099E3046BD
:1020180002F0EEFD436818461B9303F099FD034652
:1020280030461C931E4602F0E3FD83681993002E88
:102038003FF480AD199B002B3FF47CAD199B1B78B6
:10204800002B3FF477AD9AF8006047F48067F6E418
:102058009AF8006047F00107F1E49DF88330002BFF
:102068007FF468AD9AF800608DF88340E7E4BB46DA
:10207800012B00F0C381022B54AD1FD1189A04F034
:102088000F03D35C240944EA09744FEA191905F8C7
:10209800013D54EA0903F2D15F4654AB5B1B0C9334
:1020A800089A0C9900238A42B8BF0A460D930692F3
:1020B8000F939DF883201393109372E604F007039F
:1020C800E40844EA49744FEAD909303354EA09016B
:1020D8002A4605F8013DF1D11BF0010FDCD0302B69
:1020E800DAD03023023A05F8013C54AB9B1A5F461C
:1020F80015460C93D4E7652E40F3E980DDE9140119
:1021080000220023FEF7B6FC002800F0E18101233D
:10211800C8F80430299BC04A01330134072B2A949C
:102128002993C8F8002000F3BF8408F10808229B0F
:10213800129A934280F2DC82169B179A1C44C8E9D3
:102148000023299B2A940133072B299300F3178432
:1021580008F10808129B5D1E002D7FF7BCAD102DFD
:1021680041F35D81DFF8B492224649461026B9460C
:10217800299B0F46DDF824B0079C05E008F1080804
:10218800103D102D40F39D8401331032072BC8E910
:102198000076CDE92932F1DD2146584628AA03F018
:1021A80075FD00287FF411ADDDE929320DF1AC0889
:1021B800E6E70A9B069AA3EB020BBBF1000F7FF739
:1021C80070ADBBF1100F41F35280DFF850924146D9
:1021D8002046A8464C461023299A079DDDF82490EE
:1021E80006E0ABF1100BBBF1100F01F1080119DD8E
:1021F80001321030072AC1E90043CDE92920F0DD7A
:102208002946484628AA03F041FD00287FF4DDACA2
:10221800DDE92920ABF1100BBBF1100F4FF01003D3
:102228002BA9E5DC4546A1468846044601325C44B4
:10223800072ACDE92924C8F80090C8F804B000F3AB
:10224800918308F108082CE5BBF1100F40F3E384F3
:10225800DFF8C89141462046A8464C461023299AE3
:10226800079DDDF8249006E0ABF1100BBBF1100FD1
:1022780001F1080119DD01321030072AC1E90043D4
:10228800CDE92920F0DD2946484628AA03F0FEFCBE
:1022980000287FF49AACDDE92920ABF1100BBBF1E3
:1022A800100F4FF010032BA9E5DC4546A1468846E0
:1022B800044601325C44072ACDE92924C8F8009075
:1022C800C8F804B000F3D28108F10808F1E4129BC1
:1022D800012B40F382810123299E01341E44072EDD
:1022E800C8F800502A94C8F80430299600F36C8383
:1022F80008F10808169B0136179A1C44072EC8E9EE
:102308000023CDE9296400F36C8308F10808002252
:10231800DDE914010023FEF7ADFB002840F07A81C7
:10232800129B0136013B01351C44072EC8F80050AA
:102338002996C8F804302A9400F35F8108F1080848
:102348001A9B01361C44C8F80430072E24ABCDE98B
:102358002964C8F800307FF7BCAC0799099828AA07
:1023680003F094FC00287FF430AC2A9C0DF1AC08F3
:10237800B1E4B9F1100F40F3C686DDE929214046E2
:10238800CDE91D36B84610244F46079EA946099D3B
:1023980004E0103F102F00F1080016DD0132204B39
:1023A8001031072AC0E90034CDE92921F1DD314691
:1023B800284628AA03F06AFC00287FF406ACDDE969
:1023C8002921103F102F2BA8E8DC4D46DDE91D36EA
:1023D800B9464746804609EB010401321049072AED
:1023E800CDE92924C8F80490C8F8001000F3408308
:1023F8009DF8832008F108082CE4BB460A2C79F1E3
:10240800000380F0FB82012330345F468DF84F4192
:102418000C930DF24F1543E65C7A0008707A0008B9
:10242800607A00080799099828AA1D9303F02EFCE2
:1024380000287FF4CAAB2A9C1D9B0DF1AC081BE455
:102448000799099828AA03F021FC00287FF4BDAB5E
:102458002A9C0DF1AC0820E4102D40F3BE8610260E
:10246800299B099FDDF81C9004E0103D102D08F110
:10247800080817DD0133BA4A1034072BC8E90026CB
:10248800CDE92934F1DD4946384628AA03F0FEFB98
:1024980000287FF49AABDDE92934103D102D0DF1A9
:1024A800AC08E7DC0133AE4A2C44072BCDE92934CC
:1024B800C8F80450C8F800207FF715AC07990998A8
:1024C80028AA03F0E3FB00287FF47FAB2A9C0AE4E8
:1024D8002299002940F31081DDF84090129B99451C
:1024E800A8BF9946B9F1000F0BDD299B4C44013375
:1024F800072BC8E900592A94299300F3818508F12C
:102508000808109EB9F1000FA8BFA6EB0906002E17
:1025180000F3F582DDF840B07905AB4400F1AC84F6
:10252800229B129A934202DBFA0740F19283169A91
:1025380017991444C8E90012299A2A940132072AE3
:10254800299200F3A88508F10808129AAE18A6EB9C
:102558000B06D51AAE42A8BF2E46002E0DDD299BCC
:1025680034440133072BC8F800B0C8F804602A9433
:10257800299300F3FC8508F10808002EA8BFAD1BBD
:10258800002D7FF7A8AB102D40F34987DFF8D491D1
:10259800224649461026B946299B0F46DDF824B045
:1025A800079C05E008F10808103D102D40F38982CA
:1025B80001331032072BC8E90076CDE92932F1DD65
:1025C8002146584628AA03F061FB00287FF4FDAA9B
:1025D800DDE929320DF1AC08E6E7FE073FF57BAEF1
:1025E8000123299E01341E44072EC8F800502A945E
:1025F800C8F8043029967FF7A1AE0799099828AA48
:1026080003F044FB00287FF4E0AADDE929640DF11A
:10261800AC0895E6129B5D1E002D7FF791AE102D3C
:1026280040F31987224608974FF0100BDFF83491D2
:10263800099C079F05E008F10808103D102D40F39C
:10264800C78201361032072EC8E9009BCDE92962FE
:10265800F1DD3946204628AA03F018FB00287FF44C
:10266800B4AADDE929620DF1AC08E6E707990998F3
:1026780028AA03F00BFB00287FF4A7AA2A9C0DF1D7
:10268800AC08FFF716BB17F0100377D117F040021C
:1026980000F0AC820E9A994652F8044B0E92A4B2FE
:1026A80008E41BF010030E9A54D11BF040014DD0E2
:1026B80052F8044B99460E920123A4B2FFF7FDBBD2
:1026C80053F8044B0E93FB0653D47D064ED544F3C2
:1026D800C0394B4624B2FFF78EBB2D2364428DF8D8
:1026E8008330BB464FF0010369EB4909FFF7E8BBAC
:1026F800F8077FF5F0AA1FE50123C8F80430299BE5
:10270800194A01330134072B2A942993C8F8002069
:1027180000F3688408F10808002940F02582129A1D
:1027280007F0010313433FF4D6AA169B1799E21842
:10273800C8E90013299B2A920133072B299300F338
:10274800508308F1080820E254ADA9E41BF400798D
:1027580040F0A08252F8044B01230E92FFF7ADBB64
:10276800607A0008707A00085C7A0008B80500F101
:1027780079824FEAE4794B46FFF73DBB0E9B53F84D
:10278800044B0E93FFF796BBDDE9140102460B4696
:10279800FEF7A2F9002840F0F785612E00F06C855D
:1027A800412E00F07F82089B013300F0948526F0CB
:1027B8002003472B069300F07B85DDE9141247F4CC
:1027C80080730F931346002BC0F2F4850C930023FB
:1027D8008B461D930D93069B462B00F02B84452BAF
:1027E80000F0148508990C9B01910221009126A9FB
:1027F800049123A9039122A95A460998029100F04D
:10280800AFFF069B0546472B40F0448617F0010FA3
:10281800B9460F9F40F0F784269B5B1B1293069BDB
:10282800472B00F0F182069B462B00F04284229B46
:102838001093109B069A013B412A229300F08A8547
:102848000021F2B2002B8DF89020B6BF2D222B224A
:10285800109B8DF89120B8BFC3F10103092B40F3F9
:1028680081850DF19F0C6246BA4F1C46104687FBC6
:102878000312D917C1EBA20101EB8102A3EB4202BB
:102888003032632C00F8012C0B4600F1FF32ECDCEF
:102898003033811EDBB28C4502F8013C40F2FF85E3
:1028A8000DF1920101E012F8013B944501F8013B5A
:1028B800F9D10DF1A1030DF192021B1A134424AAB8
:1028C8009B1A1A93129B1A9A012B1A440C9240F3E2
:1028D8009E850C9B169A13440C9300230C9A29F49A
:1028E800806722EAE27247F480770F930692139387
:1028F80010931D9B002B40F0B0829DF88320089315
:10290800FFF74FBA0E9B0B9853F8041BC217554696
:10291800C1E900020E93FFF7FCB98F4B189317F02B
:10292800200949D00E9B073323F00703D3F80490FE
:1029380053F8084B0E93F80709D554EA090306D053
:1029480030238DF8856047F002078DF88430022324
:1029580027F4806BFFF7B1BABB46FFF70DBB7F4B7F
:102968001893DCE70799099828AA03F08FF900283B
:102978007FF42BA92A9C0DF1AC08FFF792B90799AF
:10298800099828AA03F082F900287FF41EA92A9C36
:102998000DF1AC08FFF7DEBB062B294628BF06233E
:1029A8002A4608950D9506936D4D0E940C930F913C
:1029B80013911091FFF7F5B917F0100369D00E9B2A
:1029C80053F8044B0E93B6E70799099828AA03F021
:1029D8005DF900287FF4F9A8DDE929640DF1AC0858
:1029E80088E40799099828AA03F050F900287FF489
:1029F800ECA8DDE929640DF1AC0888E400230BF4A8
:102A08008062CDE90CA8069692461E46DDF86480E1
:102A180054AF0CE00023204649460A22FEF79AF8F4
:102A28000A2C79F100031BD3044689462F46204619
:102A38000A2200234946FEF78DF830327D1E013602
:102A480007F8012CBAF1000FE4D098F800309E4244
:102A5800E0D1FF2EDED00A2C79F1000380F0E0806F
:102A6800CDF864801296DDE90CA8069EFFF714BB2A
:102A78000799099828AA1D9303F008F900287FF4FC
:102A8800A4A89DF883202A9C1D9B0DF1AC08FFF794
:102A9800E1B817F0400200F0B4800E9A994652F857
:102AA800044B0E92A4B246E70799099828AA03F0A6
:102AB800EDF800287FF489A82A9C0DF1AC08FFF7EF
:102AC80036BB14463A464F46914601332C44072BF1
:102AD800C8F80090C8F80450CDE929347FF7F9A860
:102AE8003BE4012BBB467FF4C6AA8CE40E9B0B99F2
:102AF80053F8042B554611600E93FFF70AB9102EB0
:102B080040F3AD84DFF85C90424648462146A8462B
:102B1800B9464FF0100B0746299B099C079D04E016
:102B28000832103E102E40F3488201331031072B33
:102B3800C2E9007BCDE92931F2DD2946204628AAE1
:102B480003F0A4F800287FF440A8DDE929312BAA76
:102B5800E7E700BF676666662C7A0008407A0008D7
:102B6800547A0008707A0008169B1798E218C8E98A
:102B78000003299B2A920133072B299300F3318103
:102B880008F108080029C0F20283129901338C1851
:102B9800072BCDE92934C8F80050C8F804107FF78E
:102BA80098A8FFF7DABB2846CDF820900E9402F0DB
:102BB800CFFF20EAE073CDE90C099DF88320CDF81A
:102BC8003C90CDF84C90CDF840900693FFF7E9B8CB
:102BD8001446089F01362C44072ECDE92964C8F80D
:102BE8000090C8F804507FF7A9AB06E517F4007900
:102BF8000E9B3DD053F8044B91460E93E4B2FFF779
:102C080059B917F400790E9B40D053F8044B9146FC
:102C18000E93E4B28FE6299ADFF84C92FFF749BB8E
:102C28001C9B1B99ED1A1A46284602F0BFFF98F81C
:102C380001300BB108F10108204649460A22002359
:102C48000026FDF787FFEFE62D228DF88320FFF79A
:102C580098B8129AAE18A6EB0B06D51AAE42A8BFC2
:102C68002E468AE444F3C0194B4664B2FFF7C3B852
:102C780053F8044B0E93FFF71DB90E9B0B9953F8AD
:102C8800042B554611800E93FFF743B853F8044BB5
:102C98000E9350E652F8044B894601230E92E4B293
:102CA800FFF70BB930238DF8843058238DF8853021
:102CB800089B47F00204632B00F3E38200233BAD3B
:102CC8000D9347F481730F93DDE914121346002B1B
:102CD8002746C0F240820C9300238B461D9326F0B2
:102CE80020030693612E00F01783412E7FF473AD05
:102CF80022AA58460C9902F09BFE00224FF07F53FF
:102D0800FDF750FC02460B46CDE9102300220023B4
:102D1800FDF7B0FE08B101232293544B0C93089B96
:102D2800CDE912A6CDE91E78DDE91067AB46DDF8DE
:102D380030A003F1FF39109506E00022002309F1C5
:102D4800FF39FDF797FEE8B90022494B304639466E
:102D5800FDF728FC0F460646FDF7D4FE0446FDF7AE
:102D6800B7FB0B46024639463046FDF763FA1AF8B8
:102D78000430B9F1FF3FD8464D4606460F460BF8DA
:102D8800013BDAD13046394600223A4BA946DDF8F4
:102D980048A0109DCDF84880CDE91001DDF87C8071
:102DA800139E1E9FFDF78EFE002840F04482DDE949
:102DB800100100222F4BFDF75DFE10B1E10700F175
:102DC8003A824B46002B06DB302201335B440BF87A
:102DD800012B5B45FBD1ABEB0503B94612930F9F63
:102DE8001DE50799099828AA02F050FF00287EF4EB
:102DF800ECAEDDE9293222990DF1AC08C2E6906DFE
:102E080001F000FFFEF7B3BE229BDA1C109302DB31
:102E1800089A934204DD023E26F02003069308E553
:102E2800109B129A9342C0F2828119F0010F00F0B0
:102E3800A882169A13440C9319F4806F00F09082BC
:102E4800109B6726002B00F346810C9B23EAE37353
:102E5800069300230F9313934BE52D2200238DF83F
:102E680083200893FEF7A0BF707A0008407A000814
:102E7800000030400000E03F129B4246DDF84C80E5
:102E8800EB185E460893CDF830A010972146199F9D
:102E9800DDF87090DDF824A0DDF81CB00F9B1395C9
:102EA800B8F1000F2ED0002B6CD1013F08F1FF388C
:102EB8001B9B4944C2E90039299B2A910133072BFE
:102EC800299363DC0832089B38789B1B8342A8BF90
:102ED8000346002B1C460ADD2998194401300728AF
:102EE800C2E900632A9129905BDC38780832002C0B
:102EF800B4BF0546051B002D15DC06440F9BB8F131
:102F0800000FD0D1002B3DD1DDE91235EB189E42E0
:102F1800B346199790460C4628BF9B46DDF830A06B
:102F2800109FFFF7FDBA102D40F36F8210242998E7
:102F380004E0103D102D02F1080216DD0130A84B07
:102F480010310728C2E90034CDE92901F1DD5946DD
:102F5800504628AA02F09AFE00287EF436AEDDE933
:102F68002901103D102D2BAAE8DC01309C4B294487
:102F78000728CDE92901556013604EDC38780832FE
:102F88000644BBE70F9B013B0F9391E75946504618
:102F980028AA02F07BFE00287EF417AE2A992BAAF5
:102FA80091E75946504628AA02F070FE00287EF4A0
:102FB8000CAE38782A992BAA99E7454690463A46A6
:102FC8000C464F46914601333444072BCDE929344A
:102FD800C8F80090C8F8046000F35D8108F108089B
:102FE800FFF798BA0799099828AA02F04FFE002817
:102FF8007EF4EBAD22992A9C0DF1AC08FFF78CBB4F
:103008000799099828AA02F041FE00287EF4DDAD50
:103018002A9C0DF1AC08FFF774BA5946504628AA05
:1030280002F034FE00287EF4D0AD38782A992BAA15
:10303800064463E708990C9B01910321009126A996
:10304800049123A9039122A95A460998029100F0F4
:1030580087FB03780546302B00F0C081229B089A35
:10306800B94613440F9FEC185846002200230C99C8
:10307800FDF700FD10B12346FFF7CFBB269BA34207
:10308800BFF4CBAB30215A1C26921970269B9C4268
:10309800F9D8FFF7C2BB0799099828AA02F0F6FDEC
:1030A80000287EF492AD229B2A9C0DF1AC08FFF714
:1030B8004CBA229A002A109240F3B981089909F073
:1030C80001030B4340F040816626109B0C9319F4D2
:1030D800806F3FF4BAAE19990B78FF2B00F0D681B8
:1030E8000024109A204604E001300131FF2B00F043
:1030F8006481934280F26181D21A4B78002BF3D11C
:103108000B780134F2E7DDE92921FFF764B9089B60
:103118009DF883200E9406930C9308900F901390BB
:103128001090FEF73EBE00230893FEF78ABC129B60
:10313800169A9A18109B0C92002B40F35D81672613
:10314800C5E70799099828AA02F0A0FD00283EF4CF
:10315800E8ADFEF740BD26F0200306932D22DDE9F9
:1031680014349B4604F100431D920C93BAE5079969
:10317800099828AA02F08AFD00287EF426AD229D2F
:10318800129B2A9C0DF1AC085D1BFFF7F6B94E4265
:10319800103180F2818141461024A846DFF8409022
:1031A800DDF824B0079D04E00831103E102E40F3EE
:1031B800998001331032072BC1E90094CDE92932F7
:1031C800F2DD2946584628AA02F060FD00287EF460
:1031D800FCACDDE929322BA9E7E7299BFFF762B9A7
:1031E800707A0008079B5B6EDD0707D4079B9B89F5
:1031F8009C0503D4079B986D01F004FD4FF0FF3345
:103208000B93FEF7F1BC089BEC182DE70221009107
:1032180008995A464C1C26A9049123A9039122A96E
:103228000C9B09980194029100F09AFA0546B94658
:103238002C440F9F18E7129B26930C9B1BF8012C1C
:10324800D97B5B468A4209D1302003F8010C269BC2
:103258005A1E269213F8012C9142F6D0392A0BBF38
:103268000C9A0132927AD2B203F8012CB3E5299A6A
:10327800DFF83492FEF7DABF30238DF884307823F4
:1032880014E50998591C01F02FFD0546002800F0A7
:10329800F6800D9015E50799099828AA02F0F6FC22
:1032A80000287EF492AC2A9C0DF1AC08FFF732B9E5
:1032B800089B002B08BF0123089347F480730F93E2
:1032C800159B002BC0F2A980DDF850B01D900C931F
:1032D8000D90FFF787BA0623089326F0200306937C
:1032E800FFF76BBA4546884601333244072BCDE9D0
:1032F8002932C8F80090C8F804607FF722AA079915
:10330800099828AA02F0C2FC00287EF45EACDDE928
:1033180029320DF1AC0838E422AA58460C9902F07B
:1033280087FB00224FF07F53FDF73CF902460B461E
:10333800CDE9102300220023FDF79CFB08B10123EF
:1033480022935A4B0C93EAE4169B6626D318194429
:103358000C91BCE606F10F020121D2B2FFF772BA56
:10336800672672E500295FD130228DF892200DF191
:103378009302303302F8013B24ABD31A1A93FFF7B8
:10338800A1BA109B0C9357E5159B0320002BB8BFDF
:103398002D224FF00003A8BF9DF8832019460D93F6
:1033A800434D444BB8BF8DF8832027F08007069023
:1033B800FEF7EFBC00230D93D0E6199110921390FD
:1033C8000F940F9A139B1C9913440C9A01FB032327
:1033D8000C9323EAE3730693FFF78BBA584600224F
:1033E80000230C99FDF746FB00287FF437AE089BB5
:1033F800C3F10103229332E6C3F101031A4422EA1E
:10340800E27367260C92069323E52998ADE519F037
:10341800010F3FF462AAFFF75CBA0D909EE6299B64
:10342800DFF88490FFF751BB0DF19202A1E7089AEB
:1034380009F0010959EA020304D10123662606931B
:103448000C9306E5169B662601331A4422EAE273BA
:103458000C920693FDE4DFF85090FFF7BBBB299B65
:10346800DFF84490AFE50E9B9AF80160924653F856
:10347800042B0E9342EAE2730893FEF7E0BA079A28
:10348800938943F040039381FEF7A5BB00230F9374
:10349800139396E7089CCAE6DFF80C9024E702230A
:1034A8001A93FFF70FBA00BF707A00082C7A000849
:1034B800247A0008287A0008F0B54FF4806C154685
:1034C800002406461F46ADF26C4D1AAB00930493D8
:1034D8008B8916A823F00203ADF80C304B6E0694C6
:1034E8001993CB890C46ADF80E30CB69CDF808C0DE
:1034F80007934B6ACDF814C0099301F07DFB2A4667
:103508003B4669463046FEF72BFA051E07DB69463F
:10351800304601F01DF9002818BF4FF0FF35BDF8FF
:103528000C305B0603D5A38943F04003A3811698AA
:1035380001F064FB28460DF26C4DF0BD38B5334BF5
:1035480005461B680C460BB19A6B12B3B4F90C30E4
:1035580018079AB225D5216900292DD012F001004B
:1035680007D000256069A5604042A06139B10020FC
:1035780038BD950758BF6069A0600029F7D11206C9
:1035880058BF0846F4D543F040034FF0FF30A381FD
:1035980038BD184601F010F9B4F90C3018079AB282
:1035A800D9D4D1062AD5520714D4216943F0080387
:1035B800A3819AB20029D1D102F42070B0F5007F1E
:1035C800CCD02146284601F01FFBB4F90C30216904
:1035D8009AB2C3E7216B51B104F14002914204D081
:1035E800284601F0E1F9B4F90C30002222630022E8
:1035F800216923F02403C4E90012D7E7092243F024
:1036080040032A604FF0FF30A38138BD040000203A
:10361800024B13B1024800F005B8704700000000E3
:10362800E5480008002301461A46184603F05CBA2C
:103638002DE9F04F03690C6985B0A342C0F2898077
:10364800013C01F11405A30000F11408019355F899
:10365800243058F8242001338A469A4208EB840122
:103668008146B2FBF3F605EB840702913AD30021B9
:10367800AE4640460A46A34603955EF8045B0468D6
:10368800ABB206FB03132D0C190C06FB05119BB2FC
:10369800D21A1FFA84FC94448AB2C2EB144202EB99
:1036A8002C421FFA8CFC4CEA0243774540F8043B55
:1036B8004FEA11414FEA2242DFD2019B5C4658F89B
:1036C8000330039D73B9029B043B984504D307E07C
:1036D800984504F1FF3403D253F80429002AF7D09F
:1036E800C9F810405146484602F07AF800282CDB09
:1036F80040460023013655F8041BD0F800C08AB2B2
:103708009A1A1FFA8CFE0B0C7244C3EB1C4303EB92
:10371800224392B242EA0342AF4240F8042B4FEAF6
:103728002343E8D258F8242008EB84036AB9043B01
:10373800984504D307E0984504F1FF3403D253F8C1
:103748000429002AF7D0C9F81040304605B0BDE872
:10375800F08F002005B0BDE8F08F00BF000000002A
:103768002DE9F04F90469946016C99B00446CDE991
:103778000489259D41B10123426C93408B604A60C6
:1037880001F0D8FD00232364B9F1000AB4BF012376
:1037980000232B60764BBCBF2AF0004ACDF814A05A
:1037A80033EA0A0300F0AA80DDE90423104619462B
:1037B80000220023CDE90A01FDF75CF9074670B144
:1037C8000123249A1360269B002B00F0E6826948A7
:1037D8001860431E0393039819B0BDE8F08F16AB29
:1037E800019317AB00932046DDE90A2302F0BEF8E7
:1037F8005FEA1A56054640F09780DDE916763E44A2
:1038080006F23240202840F3B783C0F140000AFA9C
:1038180000FA06F2124028FA00F04AEA0000FCF723
:1038280047FE0123013E0F93A1F1F8710022524B8C
:10383800FCF700FD48A3D3E90023FCF7B3FE48A337
:10384800D3E90023FCF7F8FC804630468946FCF7AC
:103858003FFE45A3D3E90023FCF7A4FE02460B462E
:1038680040464946FCF7E8FC80468946FDF74AF998
:1038780000228346002340464946FDF705F9002803
:1038880040F07E82BBF1160F00F26D82DDE90A017D
:103898003A4B03EBCB03D3E90023FDF7F5F80028F7
:1038A80072D00023BE1B0E93731E0BF1FF3B0693D1
:1038B80000F1608200230993BBF1000F6BDA099BCA
:1038C800CDF81CB0A3EB0B030993CBF100030D93C8
:1038D800229B4FF0000B092B66D8052B40F34A8337
:1038E8000026043B2293229B023B032B00F26C86AA
:1038F800DFE813F061045E045504380442F20F73E4
:10390800249ACAF3130A13605AEA08031AD1269BA9
:10391800002B00F068861A4B03930833269A039805
:10392800136019B0BDE8F08FDDE90A12C2F3130382
:10393800084643F07F510F97A6F2FF36169F41F4D1
:10394800401173E7269B002B40F0EF830D4B039348
:1039580041E700BFAFF3008061436F63A787D23FA1
:10396800B3C8608B288AC63FFB799F501344D33F66
:103978000000F07F5D7A00080000F83FD07B000867
:10398800847A0008807A0008BE1B731E069300F133
:103998008A840E900990069B5B44CDE9063B002380
:1039A8000D93229B092B98D9002322934FF0FF33C4
:1039B8000126089300230C9623930021089B616439
:1039C8001293204601F090FC0390002800F0048632
:1039D800039B2364089B0E2B00F21481002E00F039
:1039E80011810799002940F36084AF4B01F00F0261
:1039F80003EBC2030A46D3E900674FEA2118D10551
:103A080040F11784DDE90A01A84B4FF0030AD3E916
:103A18000823FCF7F1FECDE9100108F00F08B8F112
:103A2800000F13D0DFF8849218F0010F09D0D9E9FC
:103A3800002330463946FCF7B5FD06460F460AF125
:103A4800010A5FEA680809F10809EDD1DDE910010A
:103A580032463B46FCF7D0FE804689460E9B43B172
:103A6800002240464946924BFDF70EF8002840F0E8
:103A780035855046FCF72CFD42464B46FCF792FD37
:103A88008C4B0022FCF7D8FBA1F15073CDE9100153
:103A98001193089B002B00F09780079B1493089BB9
:103AA80013930C9B002B00F0A984139A7E4B0020E3
:103AB80003EBC20353E902237F49FCF79DFEDDE9CE
:103AC8001023FCF7B7FBCDE9100149464046FDF746
:103AD80019F80746FCF7FCFC02460B4640464946E7
:103AE800FCF7A8FBDDE91023039E303706F8017BBD
:103AF80080468946FCF7C8FF002840F02E85CDF89F
:103B080054B00027DDE910AB1095139D13942AE0FB
:103B18000137AF4280F22E85504659460022674B46
:103B2800FCF740FD0022654B82468B4640464946DD
:103B3800FCF738FD89468046FCF7E4FF0446FCF7AD
:103B4800C7FC02460B4640464946FCF773FB303437
:103B580052465B4606F8014B80468946FCF794FFBF
:103B6800002840F0F88442464B4600205049FCF7B4
:103B780061FB52465B46FCF787FF0028C8D0DDE9A9
:103B88001343109D039A079302E0964200F0CD84F8
:103B9800B24616F8013D392BF7D00133DBB233704A
:103BA800079B01330793C8E15046FCF791FC424656
:103BB8004B46FCF7F7FC3F4B0022FCF73DFBA1F11D
:103BC8005073CDE9100111934046494600223C4B01
:103BD800FCF730FBDDE910894B46424606460F46A6
:103BE800FCF770FF8146002840F0AF84DDE9100142
:103BF800024601F1004330463946FCF745FF0028EC
:103C080040F04883179B002BC0F28C80079A0E2A3D
:103C180000F38880244B03EBC203D3E900AB239B5A
:103C2800002B1BDA089B002B18DC40F031830022A4
:103C3800234B50465946FCF7B5FC02460B46DDE9D6
:103C48000A01FCF72BFFDDF820904E46002800F013
:103C5800CA82239BDDF80C80DF43CCE25246DDE9C3
:103C68000A785B4638464146FCF7C6FDFCF74AFF32
:103C780081460990FCF72CFC52465B46FCF792FC07
:103C8800039E0B46024641463846FCF7D3FA09F133
:103C9800300306F8013B089B012B00F05F83069474
:103CA80001271C4604952AE0D07B0008A87B000861
:103CB8000000F03F00001C400000E03F00002440EE
:103CC8000000144052465B4640464946FCF794FDC6
:103CD800FCF718FF0546FCF7FBFB52465B46FCF772
:103CE80061FC01370B46024649464046FCF7A2FAFA
:103CF80005F13003A74206F8013B00F02C830022AF
:103D0800AB4BFCF74FFC0022002380468946FCF7AA
:103D1800B1FE0028D6D0049D069C079BB24601330D
:103D280007930AE10C9A002A3DD0229A012A40F30F
:103D38009F82089B03F1FF380D9B4345C0F27082B8
:103D4800A3EB0808089B002BC0F24083069A1A448C
:103D58000692099A17461A4409920121204601F051
:103D680091FB064623E00123BE1B0E93731E0693A8
:103D78007FF5A0ADC6F101030993002306939BE5E7
:103D88005846FCF7A5FB42464B46FCF773FE002855
:103D98007FF478AD0BF1FF3B74E5864B03930398F2
:103DA80019B0BDE8F08FDDF83480099F0C9E002F14
:103DB8000CDD069900290B4608DDB942A8BF3B4631
:103DC800099AFF1AD21ACB1A099206930D9BE3B1EE
:103DD8000C9B002B00F06082B8F1000F10DD31461B
:103DE8004246204601F02AFC06462A46314620462D
:103DF80001F076FB0346294620461D4601F09AFA53
:103E08000D9BB3EB080240F0DB820121204601F054
:103E180039FBBBF1000F814600F3B380229B012BD5
:103E280040F388814FF0000A0120BBF1000F40F0F9
:103E3800B480069A104410F01F0000F09280C0F180
:103E48002003042B40F3D383099BC0F11C000344D7
:103E58000244099307440692099B002B05DD294675
:103E68001A46204601F046FC0546069B002B05DD58
:103E780049461A46204601F03DFC81460E9B002B20
:103E880040F03881089B002B40F31E810C9B002BCF
:103E980040F09F80079B013307930127DDF80C80D2
:103EA800DDF820A007E0294600230A22204601F079
:103EB8004BFA0546013749462846FFF7B9FB5745EF
:103EC80000F1300308F8013BEDDB089A0027002ACF
:103ED800CCBF93464FF0010B039A93442946012225
:103EE8002046049301F006FC4946054601F078FC9B
:103EF800002840F3AB811BF8013C039A0BF1FF3B10
:103F080004E05A4500F0AD811BF8013D392B0BF157
:103F1800010AF6D001338BF800304946204601F0FB
:103F280009FA56B12FB1B74203D03946204601F0FD
:103F380001FA3146204601F0FDF92946204601F0F4
:103F4800F9F90023079A8AF80030249B1A60269B07
:103F5800002B3FF440AC0398C3F800A019B0BDE8AB
:103F6800F08F1C20099B074403440993069B0344D4
:103F7800069371E70126B6E4C0F1200008FA00F0C4
:103F88004DE401465A46204601F058FB229B8146E3
:103F9800012B40F3B6814FF0000AD9F8103009EB35
:103FA8008303186901F022FAC0F1200041E700BF3D
:103FB800000024405C7A0008314600230A2220468B
:103FC80001F0C2F9129B0646002B40F3E982CDE9C5
:103FD8000783002F00F31D81BAF1000F40F0D9814B
:103FE800B046049B089903F00102039B0A921F46FE
:103FF800013B1944229B08911343099349462846DB
:10400800FFF716FB31468346284601F0E9FB424696
:1040180049468246204601F003FCC26801460BF17E
:104028003003002A43D104902846069301F0D8FBB8
:10403800024604992046049201F07CF9049A069BF2
:104048001AB90999002900F09B82BAF1000FC0F251
:10405800648122994AEA010A0A9951EA0A0100F0A0
:104068005C81002A00F3B681089A07F1010A974299
:10407800D3463B7000F0B481294600230A2220462B
:1040880001F062F94645054631464FF000034FF00E
:104098000A02204612D001F057F94146064600238D
:1040A8000A22204601F050F957468046A6E72046E6
:1040B800049301F03FF90122049BC6E701F044F99B
:1040C80057460646804699E7229B022B7ADC0C9BD2
:1040D800002B7FF47EAF079B4946013328460793A0
:1040E800FFF7A6FADDF80CB000F1300300270BF853
:1040F800013BF3E64946284601F072FB0028BFF66B
:10410800C1AE294600230A22204601F01DF9079B6B
:10411800054603F1FF380C9B002B7FF44DAF129B33
:10412800002B40F334820893B7E6B04B0393033374
:10413800FFF7F4BBDDE9041200297FF473AEC2F384
:104148001303002B7FF46EAEA94B1340002B00F035
:104158000082099B4FF0010A01330993069B013342
:10416800069361E601230C93239B079A1344129349
:104178000133012B1F46B8BF012708930021172FD1
:1041880061647FF71EAC012204235B0003F1140075
:10419800B842114602F10102F7D9616411E4012322
:1041A8000C93239B002B4CDD1F4612930893E5E7E5
:1041B80000230C93D8E700230C93F2E7129BCDF869
:1041C8001C800893089B002B7FF443AD49460522C9
:1041D800204601F0B9F881462846494601F000FB1F
:1041E80000287FF736AD31230398079F804600F8F3
:1041F800013B013703904946204601F09BF87B1CA0
:10420800DDF80CA00793CDF80C80002E7FF491AE5A
:1042180093E631463A46204601F06CFA0646DBE65C
:104228000D9BCDF83480A8EB03039B444FF00008A6
:1042380088E5DDE90A234FF0020ACDE91023FFF7EC
:10424800EEBB012323930893FFF7B7BB03D1049B6D
:10425800D8073FF550AEDA461BF8013D302BFAD0AF
:104268005BE6079B039A013307933123137054E6E7
:104278000F9A002A00F0288103F23343069ADDF8EA
:1042880034801A440692099A17461A44099264E53A
:104298004FF000094E46DCE4294620460D9A01F00D
:1042A800CDF90546B1E50E9064E500F01181DDE930
:1042B8000A01079A4F4B564206F00F0203EBC2035E
:1042C800D3E90023FCF76EF936118046894600F0E1
:1042D800708100234FF0020A474FF20706D5D7E94D
:1042E8000023FCF75FF901230AF1010A761007F1B0
:1042F8000807F2D1002B3FF4B1AB80468946FFF79F
:10430800ADBB049B002B7FF446AEDDE90412C2F37B
:104318001303002B3FF418AF3DE6002A12DD2946AF
:1043280001222046049301F0E5F94946054601F0CB
:1043380057FA0028049B40F31781392B00F0FB80C3
:104348000BF13103BA46079A3746013246460792BF
:104358000AF8013BE1E50995069C049D02460B46D7
:10436800FBF76AFF52465B4680468946FCF7AAFB84
:1043780060B952465B4640464946FCF77BFB00283D
:104388003FF4CBAC099BD9077FF5C7AC039AFFF77D
:10439800FFBB2046716800F0A7FF0746002800F021
:1043A8000C81336906F10C0102339A000C30FBF7DB
:1043B800C7FE39460122204601F09CF9804610E6E6
:1043C8002946204601F03AF905461EE5DDE90823AD
:1043D8009F1AC2E4392B00F0AE80BA460133B2E727
:1043E800079A374601324646079277E5807A0008F1
:1043F8000000F07FD07B0008A87B0008DDF84CA007
:104408008349DDE9102301EBCA0151E90201FCF7F8
:10441800C9F8CDE9100149464046FCF773FB06464A
:10442800FCF756F80B46024649464046FBF702FFA2
:104438005346039F3036012B8046894607F8016BA7
:1044480000F0AC80139E039B1E440022714B404633
:104458004946FCF7A7F889468046FCF753FB824695
:10446800FCF736F802460B4640464946FBF7E2FEA3
:104478000AF1300A07F801ABB74280468946E4D111
:10448800DDE910010022644BFBF7D6FE42464B469D
:10449800FCF7FAFA002862D1DDE9102300205E4912
:1044A800FBF7C8FE42464B46FCF70CFB00283FF4DE
:1044B800A9AB16F8013CB246302B06F1FF36F8D00E
:1044C800149B0133079338E5169BC3F13603D5E6F1
:1044D8004FF0020ADDE90A89FFF7C0BA089B002BF2
:1044E8003FF462AB129B002B7FF78CAB1393079BB7
:1044F8000022013B404649461493464BFCF752F8CC
:10450800804689460AF10100FBF7E2FF42464B4626
:10451800FCF748F8414B0022FBF78EFEA1F15073DF
:10452800CDE910011193FFF7BCBA079B013307933C
:104538003123FFF734BB079BBB460133079339236D
:1045480037460BF8013B4646D7E44FF000094E4684
:1045580049E69A4668E4109D139CB246B0E7149B5E
:10456800039A0793FFF714BB7FF4ECAEDA077FF5E5
:10457800E9AEE2E6DDF854B0109D139CFFF742BBAC
:10458800392BD8D0BAF1000F3FF7DAAEDAE6229B22
:10459800022B3FF713AECDF81C809CE53E466FE733
:1045A800229B022B3FF70AAE129BCDF81C80089382
:1045B8000FE54FF0020AFFF751BA024640F2EA212E
:1045C800174B184802F0D6FA002620463146666492
:1045D80000F08AFE039078B900224FF4D571104B91
:1045E800104802F0C7FA104B0393FFF7F4B83FF4F2
:1045F80033ACC0F13C00B5E4039B012223644FF0C7
:10460800FF33239612930C920893FFF7FBBA00BF6F
:10461800D07B0008000024400000E03F00001C4060
:10462800907A0008A47A0008847A0008B1F90C206E
:10463800F8B50C461107074643D4636842F4006294
:10464800002BA2815BDDA56A002D56D000233E68B1
:104658003B6093B212F4805255D101233846E16988
:10466800A847421C65D0A389A56A5B0705D563687E
:10467800C01A236B0BB1E36BC01A0246E169002331
:104688003846A847411C40D13B68002B3DD01D2B24
:1046980001D0162B54D10022A38923F40063A381EF
:1046A8002369C4E90032216B3E6031B304F1400351
:1046B800994202D0384600F077F900231846236360
:1046C800F8BD2669CEB193B29A0718BF00232568B2
:1046D80008BF63692660AD1BA3600CE02B46324619
:1046E800D4F824C03846E169E047B0F1000CA5EBE6
:1046F8000C05664416DD002DF0DC0020F8BDE36BE8
:10470800002BA0DCF9E7206DAFE70022B4F90C30EC
:10471800626023F400632269A381DB042260C2D5AE
:104728002065C0E7A3894FF0FF3043F04003A38121
:10473800F8BD3B68002B96D01D2B06D0162B04D055
:10474800A38943F04003A381F8BD00203E60F8BD73
:1047580038B505460C4608B1836BA3B1B4F90C0013
:10476800B8B1636EDB0701D4810515D5284621460B
:10477800FFF75CFF636E0546DA0702D4A3899B0541
:104788000ED5284638BD00F017F8B4F90C000028FB
:10479800E7D10546284638BDA06D00F031FAE5E7B7
:1047A800A06D00F02FFA284638BD00BF014900F07F
:1047B800FBB900BF656C00082DE9F047824639480F
:1047C80000F01EFADAF83840002C66D104230322E0
:1047D8003549DAF80450CAF83C10DFF8D090DFF811
:1047E800D080344F344E0AF53B71CAE9B921CAF872
:1047F800E0422146EB600822C5E90044C5E90444CB
:104808006C66AC60AC6105F15C00FDF743F8C5E986
:104818000759C5E90987EE6205F1580000F0ECF97F
:10482800DAF80850254B2146EB600822C5E9004418
:10483800C5E904446C66AC60AC6105F15C00FDF749
:1048480029F8C5E90759C5E90987EE6205F1580055
:1048580000F0D2F9DAF80C50194B2146EB60082227
:10486800C5E90044C5E904446C66AC60AC6105F177
:104878005C00FDF70FF805F15800C5E90759C5E9CF
:104888000A76C5F8248000F0B7F901230548CAF86C
:104898003830BDE8F04700F0B5B90248BDE8F04748
:1048A80000F0B0B9E0090020B5470008CD5A00086B
:1048B800F15A0008315B0008515B0008090001004B
:1048C80012000200014800F09BB900BFDC0900207B
:1048D800014800F097B900BFDC09002038B5084B43
:1048E800084D5B1B9C1007D0043B1D44013C55F848
:1048F80004399847002CF9D1BDE8384003F08EBA46
:10490800447E0008407E0008F8B50C46234F064652
:1049180000F0DEFCBB685D68C4F57E6325F0030526
:104928000F332B4423F47F6323F00F03A3F5805444
:10493800B4F5805F07DB0021304601F0B1F8BB68B1
:104948002B44984204D0304600F0C8FC0020F8BD43
:104958003046614201F0A4F801300DD0104ABB681E
:104968002D1B45F001055D60136830461B1B136065
:1049780000F0B4FC0120F8BD0021304601F090F8A9
:10498800BA68831A0F2BDEDD43F001035360054B31
:1049980003491B68C01A0860D5E700BF340400202B
:1049A800E40900203C08002000295ED0F8B50C4638
:1049B800064600F08DFC54F8042C784FA4F1080545
:1049C80022F001016818D7F808C04368844523F02D
:1049D800030300F08780D207436034D454F8082CCE
:1049E80007F10804AD1A1144AA68A24268D000EB86
:1049F800030CDCF804E0D5F80CC01EF0010FC2F877
:104A08000CC0CCF8082000F0918041F001036B60E5
:104A18000160B1F5007F31D24A09CB0801219140EC
:104A28007A6801331143796007EBC30257F83310F2
:104A3800083AC5E9021247F83350CD603046BDE860
:104A4800F84000F04BBCC2185268D2070ED4194483
:104A580007F108048368A34270D0C268DA609360E3
:104A680041F001036B606950D3E7704741F00103DF
:104A7800B1F5007F44F8043C0160CDD3B1F5206F57
:104A88004FEA512347D28B0903F1390003F1380269
:104A9800C300F818FB580838984258D05A6822F0D2
:104AA80003028A4202D99B689842F7D1D868C5E9BF
:104AB800023085603046DD60BDE8F84000F00EBC8D
:104AC800C2185268D20763D40B44D0E90212CA60F4
:104AD800916043F001026A603046EB50BDE8F8404F
:104AE80000F0FCBB0B44D10707D454F8082CAD1ACE
:104AF8001344D5E90212CA60916043F001026A606A
:104B0800274ABD6012689A4298D8264B30461968E1
:104B1800FFF7FAFE92E7142B0AD9542B1FD80B0B78
:104B280003F16F0003F16E02C300B2E7194491E785
:104B380003F15C0003F15B02C300AAE741F0010343
:104B4800C7E90455C5E902446B60695076E701215D
:104B5800921001FA02F279680A437A60A7E7B3F57E
:104B6800AA7F06D8CB0B03F1780003F17702C300C4
:104B78008FE740F25452934206D88B0C03F17D0024
:104B880003F17C02C30084E74FF47E737E2280E742
:104B980041F001036B60016050E700BF340400205E
:104BA80040080020140A00202DE9F8434FF00009BE
:104BB8000746884600F53876D6E90154013D10D4F9
:104BC800A389013D012B08D9B4F90E30013304D073
:104BD80021463846C04749EA00096B1C04F16804BD
:104BE800EED13668002EE7D14846BDE8F88300BF0D
:104BF8000048704734090020704700BF704700BF65
:104C0800704700BF704700BF2DE9F0418B890C4603
:104C1800990796B008D5012204F14303C4E9043288
:104C2800236016B0BDE8F081B4F90E1006460029DD
:104C380027DB6A4602F010F9002821DB019D4FF4BA
:104C4800806805F47045A5F50055B5FA85F54FF46B
:104C580000676D094146304600F046F8B4F90C305B
:104C6800F0B1204A43F08003F263C4F81480A381B2
:104C78002060206135BB3B43A38116B0BDE8F081BD
:104C8800A38913F0800519D04FF0400830464146FB
:104C9800002500F029F82F46B4F90C300028E0D19F
:104CA8009A05BED4012123F0030304F1430243F023
:104CB8000203C4E90421A3812260B2E74FF48068AB
:104CC8002F46C7E73046B4F90E1002F051FA10B972
:104CD800B4F90C30CFE7A38923F0030343F00103B1
:104CE8001BB2C8E7B54700082DE9F04F01F10B05E5
:104CF800162D064683B025D8102900F2B88000F09A
:104D0800E7FA102518224FF0020CB54F3A445368C1
:104D1800A2F108018B4200F0B7805A68D96822F0E6
:104D280003021A449C683046E1608C60516803F1C4
:104D3800080441F00101516000F0D0FA204603B0A8
:104D4800BDE8F08F35F0070500F19180A94200F227
:104D58008E8000F0BDFAB5F5FC7FC0F094816B0A37
:104D680000F08C80042B00F26A81AB0903F1390C46
:104D780003F138044FEACC00994F384443680838A7
:104D8800984206D10CE0002980F22681DB6898421F
:104D980006D05A6822F00302511B0F29F3DDA446FE
:104DA8003C69DFF840E274457AD0626822F0030279
:104DB800531B0F2B00F37681002BC7E904EE80F21A
:104DC8006781B2F5007F80F019810121D30852096B
:104DD8000B4491407A6857F833000A4307EBC30144
:104DE8000839A060E1607A6047F83340C460012167
:104DF8004FEAAC039940914259D8114206D12CF0A0
:104E0800030C490011420CF1040CFAD007EBCC0951
:104E180048466446D0F80C80404508D11CE1002B78
:104E280080F22181D8F80C80404500F01581D8F82F
:104E3800042022F00302531B0F2BF0DD08EB0501C1
:104E480045F00105C8F804503046D8E90264F4601A
:104E5800A66043F00104C7E904114C60C1E902EE01
:104E680048F8023000F03AFA08F1080402E00C238E
:104E780000243360204603B0BDE8F08F4FF4007083
:104E88004FF0400C3F2477E7D3689A4208BF0CF1F3
:104E9800020C7FF442AF3C69DFF848E1744584D1E5
:104EA80001217A684FEAAC0399409142A5D9BC68C0
:104EB800636823F003094D4503D8A9EB05030F2BBD
:104EC8007ADCDFF824B1494BDBF800201B6801329B
:104ED8002B4404EB090A00F02F8103F580530F33AC
:104EE80023F47F6828F00F084146304600F0D8FDCB
:104EF800411C024600F0EF80824500F2EA803C4BFC
:104F0800196841440846196000F04981DBF800102F
:104F1800019301311BBFA2EB0A0A5044CBF80020D1
:104F2800186012F0070B00F01181CBF108010A4458
:104F3800CBF5805190440831A1EB0801C1F30B0A6D
:104F480051463046009200F0ABFD421CDDE90023DB
:104F580000F04B81801A00EB0A08196848F001003C
:104F68005144BC42BA601960506000F02481B9F124
:104F78000F0F40F222814FF0050E6068A9F10C0C6A
:104F88002CF0070C00F0010040EA0C006060BCF156
:104F98000F0F04EB0C00C0E901EE00F22E8114465D
:104FA8005068144B1A688A4238BF1960124B1A6845
:104FB8008A4238BF196090E0621943F0010345F056
:104FC800010565603046BA600834536000F086F920
:104FD800204603B0BDE8F08FD9681A44A2E600BFA6
:104FE800340400203C0400203C080020140A00205F
:104FF800E40900200C0A0020100A0020B2F5206FF6
:105008004FEA52235FD3142B00F2B18003F15C0105
:10501800C9005B33781879580838884200F08F80C7
:105028004B6823F00303934202D989688842F7D179
:10503800C8687A68C4E902108460CC60D7E6142B8B
:1050480059D9542B00F29B802B0B03F16F0C03F101
:105058006E044FEACC008FE60134A30700F1080084
:105068007FF4D8AE53E0444642445368D8F80C1055
:1050780043F00103536054F8083F3046D9608B6011
:1050880000F02CF9F6E64FEAD50C05F108023CE6EB
:1050980022445368304643F00103536000F01EF980
:1050A8000834E7E6611945F00105656043F001053C
:1050B800C7E904113046C1E902EE4D60A35000F083
:1050C8000DF90834D6E6930903F13901C9003833DC
:1050D800A0E7BC425ED0BC68606820F00308454584
:1050E800A8EB050302D80F2B3FF766AF304600F058
:1050F800F5F80024BEE603F15C0C03F15B044FEA0B
:10510800CC0039E659F808394B4540F095801CF039
:10511800030F0CF1FF3CF5D17B6823EA01037B60A8
:10512800490099423FF6C3AE11B9C0E649000434BC
:105138001942FBD0A44669E603F11008D4E601221F
:105148009B109A407B681A437A6073E702EB080168
:105158004942C1F30B0A51463046009200F0A0FCC8
:10516800431CDDE900237FF4F5AEDA46F5E6542B5F
:1051780026D8130B03F16F01C9006E334AE7B3F564
:10518800AA7F26D8EB0B03F1780C03F177044FEADA
:10519800CC00F1E5294B186840441860B6E6CAF31C
:1051A8000B0CBCF1000F7FF4B1AEBC68C84448F0EA
:1051B80001006060F5E61446F3E60123536095E7C5
:1051C800B3F5AA7F24D8D30B03F17801C90077334C
:1051D80020E740F25452934224D8AB0C03F17D0CE3
:1051E80003F17C044FEACC00C6E5ABF1080BD844C8
:1051F8004FF0000AA8EB0208AFE604F108013046B8
:105208000093FFF7D1FBBC68009B60681968C8E68B
:1052180040F254518B420BD8930C03F17D01C90025
:105228007C33F7E64FF47E704FF07F0C7E24A3E5C5
:105238004FF47E717E23EDE67B6871E7E409002078
:105248005FFA81FC810710D00346511E2AB90AE093
:105258009A0718460AD0013905D3184613F8012BC6
:105268006245F5D1704700207047114603290CD8D4
:105278000029F8D00346014401E08B42F3D01846D8
:1052880013F8012B6245F8D1ECE7024610B54CEA59
:105298000C2444EA04441046036804326340A3F132
:1052A800013E2EEA030313F0803F04D10439032999
:1052B8001046F0D851B10346014401E08B4205D0B5
:1052C800184613F8012B6245F8D110BD002010BD17
:1052D8000148FFF795BC00BFD80900200148FFF737
:1052E80091BC00BFD809002038B5C36C05460C46F0
:1052F8004BB153F8240080B1026843F824200023FE
:10530800C0E9033338BD2122042101F053FC0346D0
:10531800E8640028EDD1002038BD0121284601FAB3
:1053280004F56A1D920001F045FC0028F3D0C0E99D
:105338000145E4E731B1C36C4A6853F822000860BC
:1053480043F82210704700BF2DE9F0414FF0000EDE
:105358000E461C460D69074601F1140001680EF15E
:10536800010E8BB202FB0343090C4FEA134C02FBFC
:1053780001CC9BB203EB0C43754540F8043B4FEA64
:105388001C44EBDC3CB1B368AB4207DD06EB85039C
:1053980001355C6135613046BDE8F0817168384699
:1053A8000131FFF7A1FF8046A8B1326906F10C016F
:1053B800023292000C30FAF7C3FEFB6C726853F8A5
:1053C8002210316043F82260464606EB850301351A
:1053D8005C613561DFE70246B521024B024801F006
:1053E800C9FB00BF907A0008247B0008020C120455
:1053F8000346CAB91020834013F07F4F04BF1B0235
:10540800083013F0704F04BF1B01043013F0404FF5
:1054180004BF9B000230002B05DB13F0804F00F126
:10542800010008BF202070470020E5E70368024616
:1054380013F0070009D0D9071FD498074BBF5B08A2
:105448009B08012002201360704799B209B9102007
:10545800C340D9B209B908301B0A190704BF1B0990
:105468000430990704BF9B080230D90703D45B08AE
:1054780000F1010003D0136070470020704720201E
:10548800704700BF38B5C36C04460D464BB1586829
:10549800B0B102685A60002201234561C0E90323C4
:1054A80038BD2122042101F085FB0346E064002871
:1054B800EDD100224FF4A071074B084801F05AFBC8
:1054C8001C220121204601F075FB0028F1D00122A1
:1054D8000223C0E90123DEE7907A0008247B000854
:1054E8002DE9F04F0E6915698846AE42144685B01D
:1054F80005DB2A46234635460C4616469846A368D9
:105508006168AF19BB42B8BF0131FFF7EDFE0190EA
:10551800002800F08780019B03F1140909EB870A32
:10552800D14505D24B46002243F8042B9A45FBD8B7
:1055380008F1140808EB860B04F11403D8451A4641
:1055480003EB85055FD22B1B153B23F003030433C4
:105558001534A54238BF0423CDE902A7AC461F463F
:10556800924605E0000C29D1C34509F1040948D940
:1055780058F8040B85B2002DF4D056464C4600234B
:1055880056F8040B216882B21FFA81FE05FB02EE71
:10559800000C0A0C05FB0022734402EB13429BB279
:1055A80043EA0243B44544F8043B4FEA1243E7D8C0
:1055B80049F8073058F8040C000CD5D0D9F8003059
:1055C800544619464D4600222688090C00FB061150
:1055D8009BB20A4443EA024345F8043B54F8046B7F
:1055E8002968360C8BB200FB0633A44503EB124343
:1055F8004FEA1342E8D8C34549F8073009F10409CE
:10560800B6D8DDE902A7002F02DC05E0013F03D090
:105618005AF8043D002BF9D0019B18461F6105B0CC
:10562800BDE8F08F024640F25D11024B024801F0DE
:10563800A1FA00BF907A0008247B000812F0030347
:105648002DE9F041144607462ED10E46A4101CD071
:10565800BD6C95B3E3074FF0000806D4641014D06E
:105668002868A8B10546E307F8D52A4631463846E2
:10567800FFF736FFB6B17168FB6C641053F8212050
:10568800326043F821600646EAD13046BDE8F08131
:105698002A4629463846FFF723FF28600546C0F802
:1056A8000080E0E70646D9E70F4A013B52F823207D
:1056B8000023FFF749FE0646C8E701213846FFF7F1
:1056C80013FE054640B140F271230122C0E90423CC
:1056D8000023B8640360BDE702464FF4A071034B92
:1056E800034801F047FA00BF987C0008907A000848
:1056F800247B00082DE9F0470C462669A36806EBD1
:105708006216751C9D429046074649684FEA621921
:1057180004DD5B009D4201F10101FADC3846FFF728
:10572800E3FD002851D0B9F1000F00F114010FDD9D
:105738000B464FF0000C09F105024FEA820E00EB10
:10574800820243F804CB9342FBD1AEF1140319440F
:10575800226904F1140318F01F0803EB820C2CD003
:105768008E464FF0000AC8F120091A6802FA08F2BA
:1057780042EA0A024EF8042B53F8042B9C4522FAFD
:1057880009FAF2D8ACEB0403153B23F00303043306
:1057980004F11502944538BF0423BAF1000F18BF6D
:1057A8002E4641F803A0FB6C6268066153F822108C
:1057B800216043F82240BDE8F087043953F8042BF0
:1057C8009C4541F8042FF9D8EDE7024640F2D9117B
:1057D800014B024801F0CEF9907A0008247B0008BA
:1057E80084460B690069C01A15D10CF1140C1431E8
:1057F8000CEB830210B401EB830301E0944508D25B
:1058080052F8044D53F8041D8C42F7D004D24FF0DF
:10581800FF3010BC70477047012010BC704700BFB4
:105828002DE9F84F0C6913698946E41A002C1746CC
:105838007DD101F11406143202EB830206EB8303D7
:1058480001E09E4276D253F8045D52F8041D8D4261
:10585800F7D067D3D9F80410FFF746FD002873D0B6
:10586800D9F81050C46000F1140426464FF0000A1D
:105878003B6909F1140807F1140E09F1100C08EB43
:1058880085020EEB83095CF804BF5EF8041B1FFA5F
:105898008BF353441FFA81FA090CA3EB0A03C1EBFB
:1058A8001B4101EB23419BB243EA0143F14546F812
:1058B800043B4FEA214AE6D8A9EB07011539153709
:1058C800B94521F0030606F1040638BF042621F085
:1058D800030138BF0021B044424526440C4418D97E
:1058E8003746444654F8041B8BB253444FEA234AC4
:1058F8000AEB11419BB243EA0143A24247F8043B39
:105908004FEA214AEED8541EA4EB080424F00304FD
:10591800344423B954F8043D013D002BFAD0056105
:10592800BDE8F88F4B460124B9461F4692E7F9DBDC
:1059380000248FE70021FFF7D7FC60B10122002384
:10594800C0E90423BDE8F88F02464FF41071054BF7
:10595800054801F00FF9024640F23221014B024896
:1059680001F008F9907A0008247B000870B501213D
:1059780082B016461D46FFF7B7FC044600284CD0F7
:105988002B46C5F30A55C3F313030DB143F4801333
:10599800002E019322D068460096FFF747FD0028A5
:1059A80037D0019B0099C0F1200203FA02F20A43A2
:1059B800C34001936261002B14BF02210121A3613E
:1059C8002161B5B1069BA5F2334505441D60079BCF
:1059D800C0F135001860204602B070BD01A8FFF77D
:1059E80025FD0123019A1946626120302361002DAB
:1059F800E8D104EB8102A0F232431069069A1360E1
:105A0800FFF7F4FCC0EB41112046079B196002B078
:105A180070BDDDE900236261CDE7024640F20A313C
:105A2800014B024801F0A6F8907A0008247B000890
:105A3800F8B50027DFF85CC021F000436345044651
:105A48000D46176023DC844653EA0C0C1FD0DFF8A0
:105A580048C0164601EA0C0C0A46BCF1000F09D1F1
:105A680000220E4BFAF79EFD6FF0350704460A46F2
:105A780021F0004322F0FF421B1522F4E002A3F2BA
:105A8800FE333B4442F07F55336045F40015204611
:105A98002946F8BDFFFFEF7F0000F07F000050436C
:105AA800002238B5064D044608462A6001F02CFF4E
:105AB800431C00D038BD2B68002BFBD0236038BDB9
:105AC800180A002010B50C46B1F90E1001F010FCB0
